:1000000012C0B2C02BC02AC029C028C027C026C039
:1000100025C024C023C022C021C020C01FC01EC0D4
:100020001DC01CC01BC011241FBECFE5D4E0DEBF25
:10003000CDBF10E0A0E6B0E0E4E4F3E002C005903C
:100040000D92A036B107D9F710E0A0E6B0E001C0EC
:100050001D92A33BB107E1F763D172C1D1CF80916B
:10006000610090916200009769F480916000883A85
:1000700049F481E090E09093620080936100C19A1E
:100080001092600080916100909162008130910532
:10009000C1F580916000883AA1F51092620010923B
:1000A000610088B38C7F88BB15BA1092600029C0AC
:1000B00085B3882379F425BB0DC080916000803B17
:1000C000C1F087EA91E60197F1F700C0000085B31F
:1000D000880F85BB85B3803280F30BC0803B71F005
:1000E00087EA91E60197F1F700C0000085B3869595
:1000F00085BB95B380916000923080F7803BC1F65C
:1001000001C021E0809161009091620081309105F1
:1001100021F480916000803759F2809161009091C4
:1001200062008130910561F480916000803F41F46C
:1001300085B3823018F085B3869585BB1092600038
:1001400080916100909162008130910561F480910D
:100150006000883041F485B3803218F485B3880F8D
:1001600085BB1092600008951F920F920FB60F92F8
:1001700011242F933F934F935F936F937F938F93AC
:100180009F93AF93BF93EF93FF9313D0FF91EF91A2
:10019000BF91AF919F918F917F916F915F914F919F
:1001A0003F912F910F900FBE0F901F90189515BA89
:1001B0000895E3E6F0E025C01DBC1CBC829BFECF89
:1001C0008CB59DB533E0880F991F3A95E1F791837F
:1001D00080831DBC1CBC829B06C08CB59DB528E1EC
:1001E0008A369207C0F38CB59DB523E0880F991F1E
:1001F0002A95E1F79383828334962FEA893C92070C
:1002000010F4829BD9CF80918D0090918E00209127
:100210008B0030918C00820F931F4091600025E08D
:100220008937920710F0406801C04F7780919100A4
:100230009091920020918F0030919000820F931F37
:1002400025E08937920710F0406401C04F7B809110
:100250009500909196002091930030919400820F28
:10026000931F25E08937920710F0406201C04F7D4F
:100270008091990090919A00209197003091980078
:10028000820F931F25E08937920710F0406101C06B
:100290004F7E80919D0090919E0020919B00309117
:1002A0009C00820F931F25E08937920710F0486069
:1002B00001C0477F8091A1009091A20020919F00F2
:1002C0003091A000820F931F25E08937920710F02C
:1002D000446001C04B7F8091A5009091A6002091C1
:1002E000A3003091A400820F931F25E08937920765
:1002F00010F0426001C04D7F8091A9009091AA004A
:100300002091A7003091A800820F931F25E0893724
:10031000920710F0416001C04E7F40936000089545
:10032000B99A18BA11BA929A8FE384BB15BA8EB5EE
:1003300082608EBD8BB780648BBF789490DEFECFD9
:04034000F894FFCF5F
:00000001FF
